123MUNICIPIO X         001208000000033316621750+0000000000000000N0000000039761557+00000000000000000000000008349928+00000000000000000000000000000000000000000000000000000000000000000000000000000000+000000033268510265
543EMPRESA Y           021901000000122788804325+0000000000000000B0000000032479183+00000010726201460000000006785432+00000002252502310000000000000000000000000000000000000000000000000000000000000000+000000121451669333
777VISA RECARGAS       000312000000007833669000+0000000000000000B0000000000462696-00000000004626960000000000097162-00000000000971620000000000000000000000000000000000000000000000000000000000000000+000000007833669000
547EMPRESA Z           000909000000017698269725+0000000000000000B0000000001363500-00000000013635000000000000286335-00000000002863350000000000000000000000000000000000000000000000000000000000000000+000000017698269725